:100000008B01F130860085018316810181170C3048
:100010008500013086008312D7209F0120308400A4
:10002000833080004A30840A80000330840A8000D4
:10003000FC30840A8000672078209100F7201108A6
:100040002520FF30712071201C280F398207572886
:1000500057283728572860285728572857286428B2
:1000600057285728572857285728572857282030C7
:1000700084008514B830582085105830582004303A
:1000800091000830900000088F0085140C30582033
:100090000A300F182030851058208F0C900B4528FF
:1000A000840A910B412885140C30582085100800D3
:1000B0008D0010308E008E0B5B288D0B59280800A8
:1000C000A2032209A3006728A20A2209A300203064
:1000D00084008520840A8520840A8520840A85205E
:1000E00008008D008E018E0B73288D0B722808007E
:1000F0008316F13086008312060E8C0083160130C1
:10010000860083120C090F390800000E8D2005218E
:1001100000088D200521203005210F398207303459
:10012000313432343334343435343634373438348B
:100130003934613462346334643465346634800045
:10014000860183160610831286170614D420D42045
:100150008613D42006308C008613801A8617800DF3
:10016000D4208C0BAC2886130615831686178312B1
:10017000840A08308C00800D0010861B00140611C4
:1001800006158C0BBB28840308308C00800D0010F2
:10019000861B0014061106158C0BC62886018316D3
:1001A0000130860083120800061506110800F130A0
:1001B00086001030712030300C211030712030302A
:1001C0000C211030712020300C2110307120203093
:1001D000FC200F30FC200130FC200630FC20080001
:1001E0000008840A0521800A800BF02808000230EC
:1001F000FC280130FC28E7388C0014210C08F73962
:100200000C210C0EF7390C2108008C0014210C086D
:1002100008380C210C0E0838FB39FD3986000238ED
:100220008600FD3986000800F130860483168604B6
:100230008312F430860002388600861B1D29FD39A2
:0C0240008600831601308600831208003F
:00000001FF
